{
  "abi": [
    {
      "inputs": [],
      "stateMutability": "nonpayable",
      "type": "constructor"
    },
    {
      "inputs": [],
      "name": "buyer",
      "outputs": [
        {
          "internalType": "address payable",
          "name": "",
          "type": "address"
        }
      ],
      "stateMutability": "view",
      "type": "function"
    },
    {
      "inputs": [
        {
          "internalType": "bytes32[128]",
          "name": "_cipherText",
          "type": "bytes32[128]"
        },
        {
          "internalType": "bytes32",
          "name": "_messageHash",
          "type": "bytes32"
        },
        {
          "internalType": "uint8",
          "name": "v",
          "type": "uint8"
        },
        {
          "internalType": "bytes32",
          "name": "r",
          "type": "bytes32"
        },
        {
          "internalType": "bytes32",
          "name": "s",
          "type": "bytes32"
        }
      ],
      "name": "complain",
      "outputs": [],
      "stateMutability": "payable",
      "type": "function"
    },
    {
      "inputs": [
        {
          "internalType": "bytes32[128]",
          "name": "_ciphertext",
          "type": "bytes32[128]"
        }
      ],
      "name": "decrypt",
      "outputs": [
        {
          "internalType": "bytes32[128]",
          "name": "",
          "type": "bytes32[128]"
        }
      ],
      "stateMutability": "view",
      "type": "function"
    },
    {
      "inputs": [],
      "name": "hash_plain_text",
      "outputs": [
        {
          "internalType": "bytes32",
          "name": "",
          "type": "bytes32"
        }
      ],
      "stateMutability": "view",
      "type": "function"
    },
    {
      "inputs": [],
      "name": "key",
      "outputs": [
        {
          "internalType": "bytes32",
          "name": "",
          "type": "bytes32"
        }
      ],
      "stateMutability": "view",
      "type": "function"
    },
    {
      "inputs": [],
      "name": "keyCommit",
      "outputs": [
        {
          "internalType": "bytes32",
          "name": "",
          "type": "bytes32"
        }
      ],
      "stateMutability": "view",
      "type": "function"
    },
    {
      "inputs": [],
      "name": "noComplain",
      "outputs": [],
      "stateMutability": "nonpayable",
      "type": "function"
    },
    {
      "inputs": [],
      "name": "price",
      "outputs": [
        {
          "internalType": "uint256",
          "name": "",
          "type": "uint256"
        }
      ],
      "stateMutability": "view",
      "type": "function"
    },
    {
      "inputs": [],
      "name": "refund",
      "outputs": [],
      "stateMutability": "payable",
      "type": "function"
    },
    {
      "inputs": [],
      "name": "seller",
      "outputs": [
        {
          "internalType": "address payable",
          "name": "",
          "type": "address"
        }
      ],
      "stateMutability": "view",
      "type": "function"
    },
    {
      "inputs": [],
      "name": "stage",
      "outputs": [
        {
          "internalType": "enum OptiSmartContract.STAGE",
          "name": "",
          "type": "uint8"
        }
      ],
      "stateMutability": "view",
      "type": "function"
    },
    {
      "inputs": [],
      "name": "timeout",
      "outputs": [
        {
          "internalType": "uint256",
          "name": "",
          "type": "uint256"
        }
      ],
      "stateMutability": "view",
      "type": "function"
    },
    {
      "inputs": [],
      "name": "transferMoney",
      "outputs": [],
      "stateMutability": "payable",
      "type": "function"
    },
    {
      "inputs": [
        {
          "internalType": "bytes32",
          "name": "_key",
          "type": "bytes32"
        }
      ],
      "name": "verifyKey",
      "outputs": [],
      "stateMutability": "nonpayable",
      "type": "function"
    }
  ],
  "bytecode": "6080604052600180546001600160a01b03191673f011a0d3a5b92f4378f06caf37045a7cbdb0fe9f1790557f81ed425f493c145750182ff2589ba232235d9ba9512e639d6e40392cccbd4371600255670de0b6b3a76400006005557f1154e74b621202f1bcae1e517ba8eddad7f3868c3eb15c7855b02bd3bd41c0356006556007805460ff1916905534801561009457600080fd5b50600a4201600455600080546001600160a01b03191633179055610879806100bd6000396000f3fe6080604052600436106100dd5760003560e01c80637b759cdf1161007f578063b899cd3f11610059578063b899cd3f1461021d578063c040e6b814610232578063f54389e614610268578063fc48612e14610302576100dd565b80637b759cdf1461018b578063a035b1fe146101a0578063ad117885146101b5576100dd565b8063590e1ae3116100bb578063590e1ae31461014f5780636cee6d771461015957806370dea79a146101615780637150d8ae14610176576100dd565b806308551a53146100e25780630e239484146101135780633943380c1461013a575b600080fd5b3480156100ee57600080fd5b506100f761032c565b604080516001600160a01b039092168252519081900360200190f35b34801561011f57600080fd5b5061012861033b565b60408051918252519081900360200190f35b34801561014657600080fd5b50610128610341565b610157610347565b005b61015761040c565b34801561016d57600080fd5b506101286104b2565b34801561018257600080fd5b506100f76104b8565b34801561019757600080fd5b506101286104c7565b3480156101ac57600080fd5b506101286104cd565b61015760048036036110808110156101cc57600080fd5b81019080806110000190608080602002604051908101604052809291908260806020028082843760009201919091525091945050813592505060ff60208201351690604081013590606001356104d3565b34801561022957600080fd5b506101576105e0565b34801561023e57600080fd5b5061024761062f565b6040518082600281111561025757fe5b815260200191505060405180910390f35b34801561027457600080fd5b506102c9600480360361100081101561028c57600080fd5b8101908080611000019060808060200260405190810160405280929190826080602002808284376000920191909152509194506106389350505050565b604051808261100080838360005b838110156102ef5781810151838201526020016102d7565b5050505090500191505060405180910390f35b34801561030e57600080fd5b506101576004803603602081101561032557600080fd5b50356106b5565b6000546001600160a01b031681565b60065481565b60035481565b6004544211610395576040805162461bcd60e51b8152602060048201526015602482015274506c656173652063616c6c206974206c617465722160581b604482015290519081900360640190fd5b600060075460ff1660028111156103a857fe5b14156103bc576000546001600160a01b0316ff5b600160075460ff1660028111156103cf57fe5b14156103e3576001546001600160a01b0316ff5b600260075460ff1660028111156103f657fe5b141561040a576000546001600160a01b0316ff5b565b6001546001600160a01b0316600033821461042657600080fd5b80600281111561043257fe5b60075460ff16600281111561044357fe5b1461044d57600080fd5b60055434101561049a576040805162461bcd60e51b815260206004820152601360248201527254686973206973206e6f7420656e6f7567682160681b604482015290519081900360640190fd5b50506007805460ff1916600117905542600a01600455565b60045481565b6001546001600160a01b031681565b60025481565b60055481565b6001546001600160a01b031660023382146104ed57600080fd5b8060028111156104f957fe5b60075460ff16600281111561050a57fe5b1461051457600080fd5b61052086868686610748565b1515600114610576576040805162461bcd60e51b815260206004820152601b60248201527f74686973206973207468652077726f6e67207369676e61747572650000000000604482015290519081900360640190fd5b61058761058288610638565b6107cb565b156105d2576040805162461bcd60e51b815260206004820152601660248201527554686973206973207468652072696768742066696c6560501b604482015290519081900360640190fd5b6001546001600160a01b0316ff5b6001546001600160a01b031660023382146105fa57600080fd5b80600281111561060657fe5b60075460ff16600281111561061757fe5b1461062157600080fd5b6000546001600160a01b0316ff5b60075460ff1681565b610640610824565b6000805b60808110156106ad5783816080811061065957fe5b6020020151826003546040516020018083815260200182815260200192505050604051602081830303815290604052805190602001201884826080811061069c57fe5b602002015260019182019101610644565b509192915050565b6000546001600160a01b031660013382146106cf57600080fd5b8060028111156106db57fe5b60075460ff1660028111156106ec57fe5b146106f657600080fd5b604080516020808201869052825180830382018152918301909252805191012060025414801561072857506004544211155b156105d25750506007805460ff1916600217905560035542600a01600455565b60008060018686868660405160008152602001604052604051808581526020018460ff1681526020018381526020018281526020019450505050506020604051602081039080840390855afa1580156107a5573d6000803e3d6000fd5b5050604051601f1901516000546001600160a01b03908116911614979650505050505050565b6000816040516020018082608060200280838360005b838110156107f95781810151838201526020016107e1565b5050505090500191505060405160208183030381529060405280519060200120600654149050919050565b604051806110000160405280608090602082028036833750919291505056fea26469706673582212201f1ab93c0d4a4f49df370e35d48061cb20321afe620d89a53eb40681aba0278864736f6c634300060c0033",
  "bytecodeSha1": "5488cd51b3dfe0aac193496aa639da129f98fb5f",
  "compiler": {
    "evm_version": "istanbul",
    "optimizer": {
      "enabled": true,
      "runs": 200
    },
    "version": "0.6.12+commit.27d51765"
  },
  "contractName": "OptiSmartContract",
  "language": "Solidity",
  "natspec": {
    "kind": "dev",
    "methods": {},
    "version": 1
  },
  "opcodes": "PUSH1 0x80 PUSH1 0x40 MSTORE PUSH1 0x4 CALLDATASIZE LT PUSH2 0xDD JUMPI PUSH1 0x0 CALLDATALOAD PUSH1 0xE0 SHR DUP1 PUSH4 0x7B759CDF GT PUSH2 0x7F JUMPI DUP1 PUSH4 0xB899CD3F GT PUSH2 0x59 JUMPI DUP1 PUSH4 0xB899CD3F EQ PUSH2 0x21D JUMPI DUP1 PUSH4 0xC040E6B8 EQ PUSH2 0x232 JUMPI DUP1 PUSH4 0xF54389E6 EQ PUSH2 0x268 JUMPI DUP1 PUSH4 0xFC48612E EQ PUSH2 0x302 JUMPI PUSH2 0xDD JUMP JUMPDEST DUP1 PUSH4 0x7B759CDF EQ PUSH2 0x18B JUMPI DUP1 PUSH4 0xA035B1FE EQ PUSH2 0x1A0 JUMPI DUP1 PUSH4 0xAD117885 EQ PUSH2 0x1B5 JUMPI PUSH2 0xDD JUMP JUMPDEST DUP1 PUSH4 0x590E1AE3 GT PUSH2 0xBB JUMPI DUP1 PUSH4 0x590E1AE3 EQ PUSH2 0x14F JUMPI DUP1 PUSH4 0x6CEE6D77 EQ PUSH2 0x159 JUMPI DUP1 PUSH4 0x70DEA79A EQ PUSH2 0x161 JUMPI DUP1 PUSH4 0x7150D8AE EQ PUSH2 0x176 JUMPI PUSH2 0xDD JUMP JUMPDEST DUP1 PUSH4 0x8551A53 EQ PUSH2 0xE2 JUMPI DUP1 PUSH4 0xE239484 EQ PUSH2 0x113 JUMPI DUP1 PUSH4 0x3943380C EQ PUSH2 0x13A JUMPI JUMPDEST PUSH1 0x0 DUP1 REVERT JUMPDEST CALLVALUE DUP1 ISZERO PUSH2 0xEE JUMPI PUSH1 0x0 DUP1 REVERT JUMPDEST POP PUSH2 0xF7 PUSH2 0x32C JUMP JUMPDEST PUSH1 0x40 DUP1 MLOAD PUSH1 0x1 PUSH1 0x1 PUSH1 0xA0 SHL SUB SWAP1 SWAP3 AND DUP3 MSTORE MLOAD SWAP1 DUP2 SWAP1 SUB PUSH1 0x20 ADD SWAP1 RETURN JUMPDEST CALLVALUE DUP1 ISZERO PUSH2 0x11F JUMPI PUSH1 0x0 DUP1 REVERT JUMPDEST POP PUSH2 0x128 PUSH2 0x33B JUMP JUMPDEST PUSH1 0x40 DUP1 MLOAD SWAP2 DUP3 MSTORE MLOAD SWAP1 DUP2 SWAP1 SUB PUSH1 0x20 ADD SWAP1 RETURN JUMPDEST CALLVALUE DUP1 ISZERO PUSH2 0x146 JUMPI PUSH1 0x0 DUP1 REVERT JUMPDEST POP PUSH2 0x128 PUSH2 0x341 JUMP JUMPDEST PUSH2 0x157 PUSH2 0x347 JUMP JUMPDEST STOP JUMPDEST PUSH2 0x157 PUSH2 0x40C JUMP JUMPDEST CALLVALUE DUP1 ISZERO PUSH2 0x16D JUMPI PUSH1 0x0 DUP1 REVERT JUMPDEST POP PUSH2 0x128 PUSH2 0x4B2 JUMP JUMPDEST CALLVALUE DUP1 ISZERO PUSH2 0x182 JUMPI PUSH1 0x0 DUP1 REVERT JUMPDEST POP PUSH2 0xF7 PUSH2 0x4B8 JUMP JUMPDEST CALLVALUE DUP1 ISZERO PUSH2 0x197 JUMPI PUSH1 0x0 DUP1 REVERT JUMPDEST POP PUSH2 0x128 PUSH2 0x4C7 JUMP JUMPDEST CALLVALUE DUP1 ISZERO PUSH2 0x1AC JUMPI PUSH1 0x0 DUP1 REVERT JUMPDEST POP PUSH2 0x128 PUSH2 0x4CD JUMP JUMPDEST PUSH2 0x157 PUSH1 0x4 DUP1 CALLDATASIZE SUB PUSH2 0x1080 DUP2 LT ISZERO PUSH2 0x1CC JUMPI PUSH1 0x0 DUP1 REVERT JUMPDEST DUP2 ADD SWAP1 DUP1 DUP1 PUSH2 0x1000 ADD SWAP1 PUSH1 0x80 DUP1 PUSH1 0x20 MUL PUSH1 0x40 MLOAD SWAP1 DUP2 ADD PUSH1 0x40 MSTORE DUP1 SWAP3 SWAP2 SWAP1 DUP3 PUSH1 0x80 PUSH1 0x20 MUL DUP1 DUP3 DUP5 CALLDATACOPY PUSH1 0x0 SWAP3 ADD SWAP2 SWAP1 SWAP2 MSTORE POP SWAP2 SWAP5 POP POP DUP2 CALLDATALOAD SWAP3 POP POP PUSH1 0xFF PUSH1 0x20 DUP3 ADD CALLDATALOAD AND SWAP1 PUSH1 0x40 DUP2 ADD CALLDATALOAD SWAP1 PUSH1 0x60 ADD CALLDATALOAD PUSH2 0x4D3 JUMP JUMPDEST CALLVALUE DUP1 ISZERO PUSH2 0x229 JUMPI PUSH1 0x0 DUP1 REVERT JUMPDEST POP PUSH2 0x157 PUSH2 0x5E0 JUMP JUMPDEST CALLVALUE DUP1 ISZERO PUSH2 0x23E JUMPI PUSH1 0x0 DUP1 REVERT JUMPDEST POP PUSH2 0x247 PUSH2 0x62F JUMP JUMPDEST PUSH1 0x40 MLOAD DUP1 DUP3 PUSH1 0x2 DUP2 GT ISZERO PUSH2 0x257 JUMPI INVALID JUMPDEST DUP2 MSTORE PUSH1 0x20 ADD SWAP2 POP POP PUSH1 0x40 MLOAD DUP1 SWAP2 SUB SWAP1 RETURN JUMPDEST CALLVALUE DUP1 ISZERO PUSH2 0x274 JUMPI PUSH1 0x0 DUP1 REVERT JUMPDEST POP PUSH2 0x2C9 PUSH1 0x4 DUP1 CALLDATASIZE SUB PUSH2 0x1000 DUP2 LT ISZERO PUSH2 0x28C JUMPI PUSH1 0x0 DUP1 REVERT JUMPDEST DUP2 ADD SWAP1 DUP1 DUP1 PUSH2 0x1000 ADD SWAP1 PUSH1 0x80 DUP1 PUSH1 0x20 MUL PUSH1 0x40 MLOAD SWAP1 DUP2 ADD PUSH1 0x40 MSTORE DUP1 SWAP3 SWAP2 SWAP1 DUP3 PUSH1 0x80 PUSH1 0x20 MUL DUP1 DUP3 DUP5 CALLDATACOPY PUSH1 0x0 SWAP3 ADD SWAP2 SWAP1 SWAP2 MSTORE POP SWAP2 SWAP5 POP PUSH2 0x638 SWAP4 POP POP POP POP JUMP JUMPDEST PUSH1 0x40 MLOAD DUP1 DUP3 PUSH2 0x1000 DUP1 DUP4 DUP4 PUSH1 0x0 JUMPDEST DUP4 DUP2 LT ISZERO PUSH2 0x2EF JUMPI DUP2 DUP2 ADD MLOAD DUP4 DUP3 ADD MSTORE PUSH1 0x20 ADD PUSH2 0x2D7 JUMP JUMPDEST POP POP POP POP SWAP1 POP ADD SWAP2 POP POP PUSH1 0x40 MLOAD DUP1 SWAP2 SUB SWAP1 RETURN JUMPDEST CALLVALUE DUP1 ISZERO PUSH2 0x30E JUMPI PUSH1 0x0 DUP1 REVERT JUMPDEST POP PUSH2 0x157 PUSH1 0x4 DUP1 CALLDATASIZE SUB PUSH1 0x20 DUP2 LT ISZERO PUSH2 0x325 JUMPI PUSH1 0x0 DUP1 REVERT JUMPDEST POP CALLDATALOAD PUSH2 0x6B5 JUMP JUMPDEST PUSH1 0x0 SLOAD PUSH1 0x1 PUSH1 0x1 PUSH1 0xA0 SHL SUB AND DUP2 JUMP JUMPDEST PUSH1 0x6 SLOAD DUP2 JUMP JUMPDEST PUSH1 0x3 SLOAD DUP2 JUMP JUMPDEST PUSH1 0x4 SLOAD TIMESTAMP GT PUSH2 0x395 JUMPI PUSH1 0x40 DUP1 MLOAD PUSH3 0x461BCD PUSH1 0xE5 SHL DUP2 MSTORE PUSH1 0x20 PUSH1 0x4 DUP3 ADD MSTORE PUSH1 0x15 PUSH1 0x24 DUP3 ADD MSTORE PUSH21 0x506C656173652063616C6C206974206C6174657221 PUSH1 0x58 SHL PUSH1 0x44 DUP3 ADD MSTORE SWAP1 MLOAD SWAP1 DUP2 SWAP1 SUB PUSH1 0x64 ADD SWAP1 REVERT JUMPDEST PUSH1 0x0 PUSH1 0x7 SLOAD PUSH1 0xFF AND PUSH1 0x2 DUP2 GT ISZERO PUSH2 0x3A8 JUMPI INVALID JUMPDEST EQ ISZERO PUSH2 0x3BC JUMPI PUSH1 0x0 SLOAD PUSH1 0x1 PUSH1 0x1 PUSH1 0xA0 SHL SUB AND SELFDESTRUCT JUMPDEST PUSH1 0x1 PUSH1 0x7 SLOAD PUSH1 0xFF AND PUSH1 0x2 DUP2 GT ISZERO PUSH2 0x3CF JUMPI INVALID JUMPDEST EQ ISZERO PUSH2 0x3E3 JUMPI PUSH1 0x1 SLOAD PUSH1 0x1 PUSH1 0x1 PUSH1 0xA0 SHL SUB AND SELFDESTRUCT JUMPDEST PUSH1 0x2 PUSH1 0x7 SLOAD PUSH1 0xFF AND PUSH1 0x2 DUP2 GT ISZERO PUSH2 0x3F6 JUMPI INVALID JUMPDEST EQ ISZERO PUSH2 0x40A JUMPI PUSH1 0x0 SLOAD PUSH1 0x1 PUSH1 0x1 PUSH1 0xA0 SHL SUB AND SELFDESTRUCT JUMPDEST JUMP JUMPDEST PUSH1 0x1 SLOAD PUSH1 0x1 PUSH1 0x1 PUSH1 0xA0 SHL SUB AND PUSH1 0x0 CALLER DUP3 EQ PUSH2 0x426 JUMPI PUSH1 0x0 DUP1 REVERT JUMPDEST DUP1 PUSH1 0x2 DUP2 GT ISZERO PUSH2 0x432 JUMPI INVALID JUMPDEST PUSH1 0x7 SLOAD PUSH1 0xFF AND PUSH1 0x2 DUP2 GT ISZERO PUSH2 0x443 JUMPI INVALID JUMPDEST EQ PUSH2 0x44D JUMPI PUSH1 0x0 DUP1 REVERT JUMPDEST PUSH1 0x5 SLOAD CALLVALUE LT ISZERO PUSH2 0x49A JUMPI PUSH1 0x40 DUP1 MLOAD PUSH3 0x461BCD PUSH1 0xE5 SHL DUP2 MSTORE PUSH1 0x20 PUSH1 0x4 DUP3 ADD MSTORE PUSH1 0x13 PUSH1 0x24 DUP3 ADD MSTORE PUSH19 0x54686973206973206E6F7420656E6F75676821 PUSH1 0x68 SHL PUSH1 0x44 DUP3 ADD MSTORE SWAP1 MLOAD SWAP1 DUP2 SWAP1 SUB PUSH1 0x64 ADD SWAP1 REVERT JUMPDEST POP POP PUSH1 0x7 DUP1 SLOAD PUSH1 0xFF NOT AND PUSH1 0x1 OR SWAP1 SSTORE TIMESTAMP PUSH1 0xA ADD PUSH1 0x4 SSTORE JUMP JUMPDEST PUSH1 0x4 SLOAD DUP2 JUMP JUMPDEST PUSH1 0x1 SLOAD PUSH1 0x1 PUSH1 0x1 PUSH1 0xA0 SHL SUB AND DUP2 JUMP JUMPDEST PUSH1 0x2 SLOAD DUP2 JUMP JUMPDEST PUSH1 0x5 SLOAD DUP2 JUMP JUMPDEST PUSH1 0x1 SLOAD PUSH1 0x1 PUSH1 0x1 PUSH1 0xA0 SHL SUB AND PUSH1 0x2 CALLER DUP3 EQ PUSH2 0x4ED JUMPI PUSH1 0x0 DUP1 REVERT JUMPDEST DUP1 PUSH1 0x2 DUP2 GT ISZERO PUSH2 0x4F9 JUMPI INVALID JUMPDEST PUSH1 0x7 SLOAD PUSH1 0xFF AND PUSH1 0x2 DUP2 GT ISZERO PUSH2 0x50A JUMPI INVALID JUMPDEST EQ PUSH2 0x514 JUMPI PUSH1 0x0 DUP1 REVERT JUMPDEST PUSH2 0x520 DUP7 DUP7 DUP7 DUP7 PUSH2 0x748 JUMP JUMPDEST ISZERO ISZERO PUSH1 0x1 EQ PUSH2 0x576 JUMPI PUSH1 0x40 DUP1 MLOAD PUSH3 0x461BCD PUSH1 0xE5 SHL DUP2 MSTORE PUSH1 0x20 PUSH1 0x4 DUP3 ADD MSTORE PUSH1 0x1B PUSH1 0x24 DUP3 ADD MSTORE PUSH32 0x74686973206973207468652077726F6E67207369676E61747572650000000000 PUSH1 0x44 DUP3 ADD MSTORE SWAP1 MLOAD SWAP1 DUP2 SWAP1 SUB PUSH1 0x64 ADD SWAP1 REVERT JUMPDEST PUSH2 0x587 PUSH2 0x582 DUP9 PUSH2 0x638 JUMP JUMPDEST PUSH2 0x7CB JUMP JUMPDEST ISZERO PUSH2 0x5D2 JUMPI PUSH1 0x40 DUP1 MLOAD PUSH3 0x461BCD PUSH1 0xE5 SHL DUP2 MSTORE PUSH1 0x20 PUSH1 0x4 DUP3 ADD MSTORE PUSH1 0x16 PUSH1 0x24 DUP3 ADD MSTORE PUSH22 0x54686973206973207468652072696768742066696C65 PUSH1 0x50 SHL PUSH1 0x44 DUP3 ADD MSTORE SWAP1 MLOAD SWAP1 DUP2 SWAP1 SUB PUSH1 0x64 ADD SWAP1 REVERT JUMPDEST PUSH1 0x1 SLOAD PUSH1 0x1 PUSH1 0x1 PUSH1 0xA0 SHL SUB AND SELFDESTRUCT JUMPDEST PUSH1 0x1 SLOAD PUSH1 0x1 PUSH1 0x1 PUSH1 0xA0 SHL SUB AND PUSH1 0x2 CALLER DUP3 EQ PUSH2 0x5FA JUMPI PUSH1 0x0 DUP1 REVERT JUMPDEST DUP1 PUSH1 0x2 DUP2 GT ISZERO PUSH2 0x606 JUMPI INVALID JUMPDEST PUSH1 0x7 SLOAD PUSH1 0xFF AND PUSH1 0x2 DUP2 GT ISZERO PUSH2 0x617 JUMPI INVALID JUMPDEST EQ PUSH2 0x621 JUMPI PUSH1 0x0 DUP1 REVERT JUMPDEST PUSH1 0x0 SLOAD PUSH1 0x1 PUSH1 0x1 PUSH1 0xA0 SHL SUB AND SELFDESTRUCT JUMPDEST PUSH1 0x7 SLOAD PUSH1 0xFF AND DUP2 JUMP JUMPDEST PUSH2 0x640 PUSH2 0x824 JUMP JUMPDEST PUSH1 0x0 DUP1 JUMPDEST PUSH1 0x80 DUP2 LT ISZERO PUSH2 0x6AD JUMPI DUP4 DUP2 PUSH1 0x80 DUP2 LT PUSH2 0x659 JUMPI INVALID JUMPDEST PUSH1 0x20 MUL ADD MLOAD DUP3 PUSH1 0x3 SLOAD PUSH1 0x40 MLOAD PUSH1 0x20 ADD DUP1 DUP4 DUP2 MSTORE PUSH1 0x20 ADD DUP3 DUP2 MSTORE PUSH1 0x20 ADD SWAP3 POP POP POP PUSH1 0x40 MLOAD PUSH1 0x20 DUP2 DUP4 SUB SUB DUP2 MSTORE SWAP1 PUSH1 0x40 MSTORE DUP1 MLOAD SWAP1 PUSH1 0x20 ADD KECCAK256 XOR DUP5 DUP3 PUSH1 0x80 DUP2 LT PUSH2 0x69C JUMPI INVALID JUMPDEST PUSH1 0x20 MUL ADD MSTORE PUSH1 0x1 SWAP2 DUP3 ADD SWAP2 ADD PUSH2 0x644 JUMP JUMPDEST POP SWAP2 SWAP3 SWAP2 POP POP JUMP JUMPDEST PUSH1 0x0 SLOAD PUSH1 0x1 PUSH1 0x1 PUSH1 0xA0 SHL SUB AND PUSH1 0x1 CALLER DUP3 EQ PUSH2 0x6CF JUMPI PUSH1 0x0 DUP1 REVERT JUMPDEST DUP1 PUSH1 0x2 DUP2 GT ISZERO PUSH2 0x6DB JUMPI INVALID JUMPDEST PUSH1 0x7 SLOAD PUSH1 0xFF AND PUSH1 0x2 DUP2 GT ISZERO PUSH2 0x6EC JUMPI INVALID JUMPDEST EQ PUSH2 0x6F6 JUMPI PUSH1 0x0 DUP1 REVERT JUMPDEST PUSH1 0x40 DUP1 MLOAD PUSH1 0x20 DUP1 DUP3 ADD DUP7 SWAP1 MSTORE DUP3 MLOAD DUP1 DUP4 SUB DUP3 ADD DUP2 MSTORE SWAP2 DUP4 ADD SWAP1 SWAP3 MSTORE DUP1 MLOAD SWAP2 ADD KECCAK256 PUSH1 0x2 SLOAD EQ DUP1 ISZERO PUSH2 0x728 JUMPI POP PUSH1 0x4 SLOAD TIMESTAMP GT ISZERO JUMPDEST ISZERO PUSH2 0x5D2 JUMPI POP POP PUSH1 0x7 DUP1 SLOAD PUSH1 0xFF NOT AND PUSH1 0x2 OR SWAP1 SSTORE PUSH1 0x3 SSTORE TIMESTAMP PUSH1 0xA ADD PUSH1 0x4 SSTORE JUMP JUMPDEST PUSH1 0x0 DUP1 PUSH1 0x1 DUP7 DUP7 DUP7 DUP7 PUSH1 0x40 MLOAD PUSH1 0x0 DUP2 MSTORE PUSH1 0x20 ADD PUSH1 0x40 MSTORE PUSH1 0x40 MLOAD DUP1 DUP6 DUP2 MSTORE PUSH1 0x20 ADD DUP5 PUSH1 0xFF AND DUP2 MSTORE PUSH1 0x20 ADD DUP4 DUP2 MSTORE PUSH1 0x20 ADD DUP3 DUP2 MSTORE PUSH1 0x20 ADD SWAP5 POP POP POP POP POP PUSH1 0x20 PUSH1 0x40 MLOAD PUSH1 0x20 DUP2 SUB SWAP1 DUP1 DUP5 SUB SWAP1 DUP6 GAS STATICCALL ISZERO DUP1 ISZERO PUSH2 0x7A5 JUMPI RETURNDATASIZE PUSH1 0x0 DUP1 RETURNDATACOPY RETURNDATASIZE PUSH1 0x0 REVERT JUMPDEST POP POP PUSH1 0x40 MLOAD PUSH1 0x1F NOT ADD MLOAD PUSH1 0x0 SLOAD PUSH1 0x1 PUSH1 0x1 PUSH1 0xA0 SHL SUB SWAP1 DUP2 AND SWAP2 AND EQ SWAP8 SWAP7 POP POP POP POP POP POP POP JUMP JUMPDEST PUSH1 0x0 DUP2 PUSH1 0x40 MLOAD PUSH1 0x20 ADD DUP1 DUP3 PUSH1 0x80 PUSH1 0x20 MUL DUP1 DUP4 DUP4 PUSH1 0x0 JUMPDEST DUP4 DUP2 LT ISZERO PUSH2 0x7F9 JUMPI DUP2 DUP2 ADD MLOAD DUP4 DUP3 ADD MSTORE PUSH1 0x20 ADD PUSH2 0x7E1 JUMP JUMPDEST POP POP POP POP SWAP1 POP ADD SWAP2 POP POP PUSH1 0x40 MLOAD PUSH1 0x20 DUP2 DUP4 SUB SUB DUP2 MSTORE SWAP1 PUSH1 0x40 MSTORE DUP1 MLOAD SWAP1 PUSH1 0x20 ADD KECCAK256 PUSH1 0x6 SLOAD EQ SWAP1 POP SWAP2 SWAP1 POP JUMP JUMPDEST PUSH1 0x40 MLOAD DUP1 PUSH2 0x1000 ADD PUSH1 0x40 MSTORE DUP1 PUSH1 0x80 SWAP1 PUSH1 0x20 DUP3 MUL DUP1 CALLDATASIZE DUP4 CALLDATACOPY POP SWAP2 SWAP3 SWAP2 POP POP JUMP INVALID LOG2 PUSH5 0x6970667358 0x22 SLT KECCAK256 0x1F BYTE 0xB9 EXTCODECOPY 0xD 0x4A 0x4F 0x49 0xDF CALLDATACOPY 0xE CALLDATALOAD 0xD4 DUP1 PUSH2 0xCB20 ORIGIN BYTE INVALID PUSH3 0xD89A5 RETURNDATACOPY 0xB4 MOD DUP2 0xAB LOG0 0x27 DUP9 PUSH5 0x736F6C6343 STOP MOD 0xC STOP CALLER ",
  "sha1": "9035972bff2f2a6fdbff9160a18e0ad3d2d2e96d",
  "source": "// SPDX-License-Identifier: MIT\n\npragma solidity ^0.6.6;\n\ncontract OptiSmartContract {\n    uint256 constant length = 128;\n    address payable public seller;\n    address payable public buyer = 0xF011A0d3A5B92F4378F06cAF37045a7cBDB0Fe9F;\n    bytes32 public keyCommit =\n        0x81ed425f493c145750182ff2589ba232235d9ba9512e639d6e40392cccbd4371;\n    bytes32 public key;\n    uint256 public timeout;\n    uint256 public price = 1000000000000000000; //wei\n    bytes32 public hash_plain_text = 0x1154e74b621202f1bcae1e517ba8eddad7f3868c3eb15c7855b02bd3bd41c035;\n    enum STAGE {\n        created,\n        initialize,\n        revealKey\n    }\n    STAGE public stage = STAGE.created;\n\n    constructor() public {\n        //可以在这里验证 verify(sig,pk_s,ct)\n        timeout = now + 10 seconds;\n        seller = msg.sender;\n    }\n\n    modifier allowed(address p, STAGE s) {\n        require(msg.sender == p);\n        require(stage == s);\n        _;\n    }\n\n    function transferMoney() public payable allowed(buyer, STAGE.created) {\n        require(msg.value >= price, \"This is not enough!\");\n        stage = STAGE.initialize;\n        timeout = now + 10 seconds;\n\n    }\n\n    function verifyKey(bytes32 _key) public allowed(seller, STAGE.initialize) {\n        if (keyCommit == keccak256(abi.encodePacked(_key)) && now <= timeout) {\n            stage = STAGE.revealKey;\n            key = _key;\n            timeout = now + 10 seconds;\n        } else {\n            selfdestruct(buyer);\n        }\n    }\n\n    function complain(bytes32[length] memory _cipherText, bytes32 _messageHash, uint8 v, bytes32 r, bytes32 s) public allowed(buyer, STAGE.revealKey) payable {\n        require(verifySignature( _messageHash, v, r, s) == true,\"this is the wrong signature\");\n        require(predicate(decrypt(_cipherText))==false,\"This is the right file\");\n        selfdestruct(buyer);\n    }\n        \n    function noComplain() public allowed(buyer, STAGE.revealKey) {\n        selfdestruct(seller);\n    }\n\n    function refund() public payable{\n        require(now>timeout,\"Please call it later!\");\n        if(stage ==STAGE.created) selfdestruct(seller);\n        if(stage == STAGE.initialize) selfdestruct(buyer);\n        if(stage == STAGE.revealKey) selfdestruct(seller);\n\n    }\n\n    function verifySignature(bytes32 _messageHash, uint8 v, bytes32 r, bytes32 s) internal view returns(bool){\n        address signer = ecrecover(_messageHash, v,r,s);\n        return  signer == seller;\n    }\n\n    function predicate(bytes32[length] memory _plainMessageHash) internal view returns(bool)  {\n        return hash_plain_text==keccak256(abi.encode(_plainMessageHash));\n        //return keccak256(abi.encode(_plainMessageHash));\n    }\n    function decrypt(bytes32[length] memory _ciphertext) public view returns(bytes32[length] memory) {\n        uint256 _index = 0;\n        for (uint256 i = 0; i < length; i++) {\n            _ciphertext[i] = keccak256(abi.encode(_index, key)) ^ _ciphertext[i];\n            _index++;\n        }\n        return _ciphertext;\n    }\n\n}\n",
  "sourcePath": "contracts/OptiSmartContract.sol",
  "type": "contract"
}